:100000000200037581361200D0E582600302006FA2
:10001000780079007A007B007C007D00EC4D601C4C
:1000200088828983E493A3A882A9838A828B83F040
:10003000A3AA82AB831CBCFFE31D80E07582007520
:1000400083007C007D00EC4D600AE4F0A31CBCFF43
:10005000F51D80F27582007583007C007D00EC4DFB
:10006000600AE4F0A31CBCFFF51D80F2120093129D
:10007000047A80FE48656C6C6F2066726F6D20623A
:100080006C696E6B79210A003C4E4F20464C4F4103
:10009000543E00227A207BA17C077D001ABAFF091A
:1000A0001BBBFF051CBCFF011DEA4B4C4D70ED2234
:1000B000C2B2120094D2B21200947474C0E0740000
:1000C000C0E07480C0E012049A1581158115812268
:1000D00075E60075E70075D60075D70075CE00751A
:1000E000CF0075C60075C700438780759852759B11
:1000F00000759AF4759B1E75AE007582002285828C
:10010000E0A2E792A1D2A3A2A292F7C2A3A2E69292
:10011000A1D2A3A2A292F6C2A3A2E592A1D2A3A2C7
:10012000A292F5C2A3A2E492A1D2A3A2A292F4C287
:10013000A3A2E392A1D2A3A2A292F3C2A3A2E292AB
:10014000A1D2A3A2A292F2C2A3A2E192A1D2A3A29F
:10015000A292F1C2A3A2E092A1D2A3A2A292F0C263
:10016000A385F08222AA82C2A0758201C002120079
:10017000FED002EAC454F0FA74804AF5821200FEFE
:10018000AA8274035AFC7B00758200C003C004126B
:1001900000FEAA82D004D0037D00EA2BFBED3CFCDC
:1001A000D2A08B828C8322AA82C28C5389F043898D
:1001B00001EA24FA5006EA24FBFA80027A018A0C4A
:1001C000750D00750E00750F0090FFEA74FFF5F0D5
:1001D0001204D7AA82AB83C28D8B047D008C8C7BEA
:1001E000008A8AD28C308DFD22AA82AB837C007D6E
:1001F00000C3EC9AED9B502B7E00BE0400501D7591
:1002000082FAC002C003C004C005C0061201A7D014
:1002100006D005D004D003D0020E80DE0CBC00D185
:100220000D80CE22D2A47582281201A7C2A422AAD0
:10023000828AE0A2E792B7A2E692B6A2E592B5A2C0
:10024000E492B4C0021202247582281201A7D002DF
:100250008AE0A2E392B7A2E292B6A2E192B5A2E04E
:1002600092B4020224AA82D2A58A8212022F90009E
:10027000020201E9AA82C2A58A8212022F90000519
:100280000201E9C2A49000141201E975823312023E
:100290007475823312027475823212027475822868
:1002A00012027475820C120274758201120274902B
:1002B00000140201E9AA82AB83ACF07402B5090410
:1002C0007DC080027D808D82C002C003C004120206
:1002D000749000051201E9D004D003D0027D007EA5
:1002E00000ED2AFFEE3BF88C018F82888389F012A3
:1002F00004BBFF60208F82C002C003C004C005C0E1
:1003000006120265D006D005D004D003D0020DBD80
:1003100000CF0E80CC3000248D028E03C3EA9410EF
:10032000EB648094805015758220C002C0031202D5
:1003300065D003D0020ABA00E30B80E022D2A77591
:1003400082281201A7C2A722AA828AE0A2E792818C
:10035000A2E69282A2E59283A2E49284C0021203F2
:100360003D7582281201A7D0028AE0A2E39281A201
:10037000E29282A2E19283A2E0928402033DAA82E9
:10038000D2A68A821203489000020201E9AA82C220
:10039000A68A821203489000050201E9C2A79000D4
:1003A000141201E975823312038D75823312038DA5
:1003B00075823212038D75822812038D75820012A8
:1003C000038D75820112038D9000140201E9AA8247
:1003D000AB83ACF07402B50A047DC080027D808DD1
:1003E00082C002C003C00412038D9000051201E90F
:1003F000D004D003D0027D007E00ED2AFFEE3BF852
:100400008C018F82888389F01204BBFF60208F8269
:10041000C002C003C004C005C00612037ED006D0CF
:1004200005D004D003D0020DBD00CF0E80CC30012A
:10043000248D028E03C3EA9410EB648094805015DF
:10044000758220C002C00312037ED003D0020ABA14
:1004500000E30B80E0227A007B00C3EA9410EB6497
:100460008094A750147C107D271CBCFF011DEC4D0F
:1004700070F70ABA00E40B80E12275C60075C70068
:100480001200B080FB020B6585823085833185F0D8
:1004900032850B339004850205CEC008858108E5BE
:1004A0000824FBF533E50824FBF88630088631087C
:1004B00086329004851205CED0082220F71430F63B
:1004C000148883A88220F507E6A88375830022E2BA
:1004D00080F7E49322E022AAF0FBE582850CF0A4E9
:1004E000FCADF0E583850CF0A42DFDE435F0FEE5D0
:1004F00082850DF0A42DFDE5F03EFEE433FFEA8594
:100500000CF0A42EFEE5F03FFFE583850DF0A42E50
:10051000FEE5F03FFFE582850EF0A42EFEE5F03FFC
:10052000FFEB850CF0A42FFFEA850DF0A42FFFE56B
:1005300083850EF0A42FFFE582850FF0A42F8EF0A7
:100540008D838C8222AA827456C0E07405C0E0C0FC
:1005500022C0238A82220529E4B52902052A22AA7B
:100560008274302AFA24C6500A74072AFA30020329
:100570004302208A82020545E582FAC4540FF582BF
:10058000C00212055FD002740F5AF58202055FAAFD
:1005900024AB25AC26AD27AE28752F20EE2EFEED20
:1005A000235401FF4206EA2AFAEB33FBEC33FCED5D
:1005B00033FDC3EE952B4008EEC3952BFE4302019D
:1005C000D52FD98A248B258C268D278E28228582AB
:1005D00022858323E4F529F52AAA30AB31AC328A8F
:1005E000828B838CF01204BBFD74012AF530E43B4E
:1005F000F5318C32EDFA7003020B5EBA25028003EE
:10060000020B56C206C207C208C209C20AC20BC206
:100610000CC20DC203C204C205752B00752C0075F7
:100620002DFFAB30AC31AD328B828C838DF0120458
:10063000BBFAA3AB82AC838B308C318D32BA2507E9
:100640008A8212054580928A06BE3000402E8A06B4
:10065000EE24C6402774FFB52D13E52C75F00AA4CF
:10066000FEEA24D02EF52C70BFD20780BBE52D7595
:10067000F00AA4FEEA24D02EF52D80ACBA2E0A741E
:10068000FFB52DA4752D00809F8A06BE6100400E27
:100690008A06EE248540075302DFD2028002C2029E
:1006A000BA20028075BA2303020729BA2A03020777
:1006B0002EBA2B02805FBA2D028055BA4202805FAB
:1006C000BA4303020773BA44030208AEBA450302F1
:1006D00008C8BA46030208C4BA47030208CCBA499C
:1006E000030208AEBA4C02803BBA4E030208D0BAED
:1006F0004F030208B5BA5003020847BA5303020772
:1007000097BA55030208BABA58030208BF0208FA9A
:10071000D206020628D208020628D209020628D2EA
:100720000B020628D20C020628D20D02062874FFFE
:10073000B52D20300B0BE53314F88833862C0206D8
:1007400028E53324FEF888338606088607188E2CA1
:10075000020628300B0BE53314F88833862D020689
:1007600028E53324FEF888338606088607188E2D80
:10077000020628300B0AE53314F888338602800F0E
:10078000E53324FEF888338603088604188B028A32
:10079000821205450208FFE53324FDF888338603FD
:1007A00008860408860518188B248C258D268B82D4
:1007B0008C838DF0120B93AB82AC838B2E74FFB5C0
:1007C0002D03852E2D20061DC3E52E952C5016E5F4
:1007D0002CC3952EF52CAB2C152CEB6008758220C4
:1007E00012054580F18524828525838526F0120433
:1007F000BBFBFA6029AB2D152DC3E464808BF0633D
:10080000F08095F050188A82120545AB24AC25ADD6
:10081000260BBB00010C8B248C258D2680C720065F
:10082000030208FFC3E52E952C40030208FFE52CC8
:10083000C3952EF52CAB2C152CEB70030208FF751D
:10084000822012054580EEE53324FDF888338603C7
:1008500008860408860518188B248C258D26E52625
:10086000FB30E7047A438013EB546060047A5080D5
:100870000AEB30E6047A4980027A588A82C0021272
:10088000054575823A120545758230120545758217
:1008900078120545D002BA4902800BBA5002800690
:1008A0008525821205788524821205788051D20A26
:1008B000752B0A804A752B088045752B0A80407578
:1008C0002B10803BD2038037D2048033D205802F97
:1008D000E53324FDF8883386030886040886051866
:1008E000188B248C258D268B828C838DF0E5291224
:1008F0000B7AA3E52A120B7A80058A82120545201D
:10090000030620040330055AE53324FCF8883386B7
:10091000030886040886050886061818188B248C98
:10092000258D268E277524887525007526808524BB
:100930003485253585263674012534FEE43535FFAA
:10094000AB368E248F258B2685348285358385367C
:10095000F01204BBFBFA70030205D98A8212054526
:1009600080CCE52B70030205D97B15300B2BE533CA
:1009700014F88833E6FC3395E0FDFEFF8C248D25CA
:100980008E268F27200A5EAC247D007E007F008C9F
:10099000248D258E268F27804C300C1FE53324FCB8
:1009A000F88833860408860508860608860718181E
:1009B000188C248D258E268F27802AE53324FEF877
:1009C0008833860408860518ED3395E0FEFF8C24F5
:1009D0008D258E268F27200A0CAC24AD257E007F26
:1009E000008E268F27300D43E524452545264527D3
:1009F00060397408B52B0C758230C003120545D0E0
:100A00000380287410B52B23758230C0031205456E
:100A1000D00330020C758278C003120545D00380E4
:100A20000A758258C003120545D003300A25AC244C
:100A3000AD25AE26E527FF30E717C3E49CFCE49D17
:100A4000FDE49EFEE49FFF8C248D258E268F27805B
:100A500002C20A752E00D20E8B00752800C000124B
:100A6000058FD000200E0DE528C4FCE6FD4CF618DD
:100A700088038002A628052EB20EE52445254526CA
:100A8000452770D68803E52C7003752C0120071AC2
:100A9000200617E52E04FCC3952C500E758220C04D
:100AA00003120545D003152C80E9300A0E75822DFE
:100AB000C003120545D003152C8024E52E6020309C
:100AC000080E75822BC003120545D003152C800F2C
:100AD00030090C758220C003120545D003152C2067
:100AE000061EAC2C152CC3E52E9C50273007047C29
:100AF0003080027C208C82C003120545D00380E246
:100B0000C3E52E952C5009E52CC3952EF52C8003BA
:100B1000752C008B00AB2E152EEB6022B20E200E32
:100B20000A08E6C4540FFB8B2880078603740F5B0A
:100B3000F528852882C00012055FD00080D72006E6
:100B4000030205D9AB2C152CEB70030205D9758275
:100B50002012054580EE8A821205450205D98529B5
:100B600082852A8322AA82BA0A0810990280FB751C
:100B7000990D10990280FB8A992220F71030F61106
:100B80008883A88220F507F6A88375830022F28067
:100B9000F7F022AA82AB83ACF07D007E008A828BC4
:100BA000838CF01204BBFFA3AA82AB83EF60070D16
:100BB000BD00EA0E80E78D828E83220000000000D7
:00000001FF
